:10092500082B00FE00FD00FB00F7081200EF00DFBA
:1009350000BF007F111A4139383742363534433309
:10094500323144453046000A080038000E000100E7
:0309550006008019
:10095900900000AF82AE83E4FCFD7BE87A80F9F871
:09096900D31209734003A380EAD4
:010972002262
:0C098900C291C292D293120959C293226B
:0C099500D291C292D293120959C293224F
:10080000E4F539F53AE53A25E02408F808E6F5B0CC
:10081000120989053AE53A70020539C39405E539AC
:10082000940040E1E4F533F53475A0F0E5A064F000
:1008300060FAE4F535F536C3E5369404E535940001
:1008400050E2E53625E0242BF808E6F5A0E4F5377C
:10085000F538E53825E02412F8E6FE08E6FFE5A0C5
:10086000440FB50711E4B5060D741A2534F8E6F502
:10087000B012099580080534E53470020533053857
:10088000E53870020537C39404E537940040C3058A
:0908900036E53670A20535809EA4
:030000000208995A
:0C089900787FE4F6D8FD75813A0208E093
:10097300EB9FF5F0EA9E42F0E99D42F0EC6480C8FB
:0609830064809845F0229B
:1008A500020800E493A3F8E493A34003F68001F261
:1008B50008DFF48029E493A3F85407240CC8C33354
:1008C500C4540F4420C8834004F456800146F6DF23
:1008D500E4800B0102040810204080900925E47E85
:1008E500019360BCA3FF543F30E509541FFEE49318
:1008F500A360010ECF54C025E060A840B8E493A3DF
:10090500FAE493A3F8E493A3C8C582C8CAC583CA09
:10091500F0A3C8C582C8CAC583CADFE9DEE780BEC1
:01095800009E
:00000001FF
