:04000000BFEF3FF01F
:107F3E0038000E000100060080008290829282843A
:107F4E00B2EC3FF082941200828082928284B2EC74
:107F5E003FF082941200000E106E000E0F6E0F4A4C
:107F6E00102AB80E0F5C880E1058D8B01200F7D732
:107F7E003E0EF66E7F0EF76E000EF86E00EE01F0FE
:107F8E0010EE0AF00900F5CFEEFFE550E150FAE1F0
:107F9E00106A0F6A0E6A0D6A0C6A0B6A0001D8EF3E
:107FAE003FF0949094929494948E000E936E1F0EC4
:107FBE00AF6E900EAB6E000E0E6E000E0D6E0D506F
:107FCE00020DF350010FD96EDA6ADF50816EA4EC08
:107FDE003FF00D4A0E2A0E5004E1050E0D5CD8A09E
:107FEE00EED79EAAFED7AECF81FFABEC3FF09E9AA6
:027FFE00F8D7B2
:020000040020DA
:08000000FFFFFFFFFFFFFFFF00
:020000040030CA
:0E000000FF021F1EFF0180FF0FC00FE00F4028
:00000001FF
